:100000000C9434000C9451000C9451000C94510049
:100010000C9451000C9451000C9451000C9451001C
:100020000C9451000C9451000C9451000C94C3009A
:100030000C9451000C9451000C9451000C945100FC
:100040000C9451000C9451000C9476000C945100C7
:100050000C9451000C9451000C9451000C945100DC
:100060000C9451000C94510011241FBECFEFD8E026
:10007000DEBFCDBF11E0A0E0B1E0E2EFF1E002C0F1
:1000800005900D92A238B107D9F721E0A2E8B1E0BE
:1000900001C01D92A838B207E1F70E94EF000C944E
:1000A000F7000C9400001092C00088E98093C10012
:1000B00086E08093C20008958091C00087FFFCCF46
:1000C0008091C60008959091C00095FFFCCF809369
:1000D000C6000895CF93DF93EC018991882319F02E
:1000E0000E946300FACFDF91CF9108951F920F9283
:1000F0000FB60F9211242F933F934F935F936F93FB
:100100007F938F939F93AF93BF93CF93EF93FF937F
:100110000E945C00C82F0E946300C13051F480919E
:100120008800909189008C599F4F9093890080930B
:100130008800FF91EF91CF91BF91AF919F918F91E7
:100140007F916F915F914F913F912F910F900FBED3
:100150000F901F901895E1E8F0E08081896080831E
:10016000EFE6F0E080818260808389E791E0909300
:1001700089008093880084B5836884BD85B58160DB
:1001800085BD17BC08951F920F920FB60F921124D0
:100190008F93EF93FF93789480918701E82FF0E09D
:1001A000EE0FFF1FE65FFE4FE081E80FF0E0EA5B35
:1001B000FE4F808187BD809187018F5F8C3318F45B
:1001C0008093870102C010928701FF91EF918F9178
:1001D0000F900FBE0F901F901895569A08950E9489
:1001E000ED000E94AB000E9453007894FFCFF8947A
:0201F000FFCF3F
:1001F20030000000000000000000010203040506B8
:1002020007070809090A0A0A0A0A0A0A090908075D
:100212000706050403020100FFFEFDFCFBFAF9F9E3
:10022200F8F7F7F6F6F6F6F6F6F6F7F7F8F9F9FA5A
:10023200FBFCFDFEFF008C9AA7B4BFCBD5DEE7EE38
:10024200F4F9FCFEFFFEFCF9F4EEE7DED5CBBFB419
:10025200A79A8C807365584B40342A2118110B06DB
:100262000301000103060B1118212A34404B586583
:02027200738097
:00000001FF
