:100000000C9434000C9451000C9451000C94510049
:100010000C9451000C9451000C9451000C9451001C
:100020000C9451000C9451000C9451000C946501F7
:100030000C9451000C9451000C9451000C945100FC
:100040000C9451000C9451000C94AB000C94510092
:100050000C9451000C9451000C9451000C945100DC
:100060000C9451000C94510011241FBECFEFD8E026
:10007000DEBFCDBF12E0A0E0B1E0EEE8F6E002C0E6
:1000800005900D92AC3FB107D9F723E0ACEFB2E099
:1000900001C01D92A730B207E1F70E94E2010C9463
:1000A00045030C94000081E890E09093C500809394
:1000B000C4001092C00088E98093C10086E080935C
:1000C000C20008958091C00087FFFCCF8091C600D8
:1000D00008959091C00095FFFCCF8093C6000895CD
:1000E000CF93DF93EC018991882319F00E94690076
:1000F000FACFDF91CF9108950F931F93CF93DF93A2
:10010000EC0168EE73E00E94EA0180E3860F0E9432
:100110006900CE0164E670E00E94EA01CB010AE0CA
:1001200010E0B8010E94EA01805D0E946900CE01E2
:10013000B8010E94EA01C82FCB01B8010E94EA0170
:10014000805D0E94690080E38C0FDF91CF911F9149
:100150000F910C9469001F920F920FB60F92112409
:100160000F931F932F933F934F935F936F937F93BF
:100170008F939F93AF93BF93CF93DF93EF93FF93AF
:100180002A9A0E9462008EE992E00E94700089E043
:100190000E94690011E0C4E0D0E00E94620000ED1E
:1001A000080F0A3048F40E946900FE01E11BF109C2
:1001B000E050FF4F00830BC08AE00E9469008DEB86
:1001C00092E00E9470008AE00E94690010E01F5FC8
:1001D000153018F3E4E0F1E020E030E04AE052911D
:1001E000429FC001439F900D1124850F911D21E076
:1001F000E030F20711F09C01F2CF9093FD02809362
:10020000FC0289E00E94690087ED92E00E94700084
:100210008AE00E9469008AED92E00E94700080915D
:10022000FC029091FD020E947C0085EE92E00E940B
:1002300070008AE00E94690088EE92E00E947000DF
:100240008AE00E9469008091FC029091FD0264E6C0
:1002500070E00E94EA0180E090E00E948F026093CB
:100260000A0170930B0180930C0190930D012A9861
:10027000FF91EF91DF91CF91BF91AF919F918F91BE
:100280007F916F915F914F913F912F911F910F91AE
:100290000F900FBE0F901F901895E1E8F0E080815D
:1002A00089608083EFE6F0E080818260808387EE62
:1002B00093E0909389008093880084B5836884BD1F
:1002C00085B5816085BD17BC08951F920F920FB64A
:1002D0000F921124CF92DF92EF92FF922F933F93D0
:1002E0004F935F936F937F938F939F93AF93BF933E
:1002F000EF93FF93E0910103F0910203E25FFE4F61
:100300006081772767FD7095872F972F0E94910254
:10031000209103033091040340910503509106039B
:100320000E94FF010E946302709302036093010325
:10033000FB01EA52FE4F808187BD20910A01309176
:100340000B0140910C0150910D01609103037091DC
:10035000040380910503909106030E94FF016B0145
:100360007C0120E030E048E453E40E941D0387FF55
:1003700009C0C0920303D0920403E0920503F092F7
:10038000060308C0109203031092040310920503A1
:1003900010920603FF91EF91BF91AF919F918F91C2
:1003A0007F916F915F914F913F912F91FF90EF90CF
:1003B000DF90CF900F900FBE0F901F901895569A18
:1003C000229A08950E94DF010E944D010E9453006D
:1003D0007894FFCFAA1BBB1B51E107C0AA1FBB1F0C
:1003E000A617B70710F0A61BB70B881F991F5A95C1
:1003F000A9F780959095BC01CD0108955058BB2771
:10040000AA270ED0E0C0D1D030F0D6D020F031F401
:100410009F3F11F41EF4C6C00EF4E095E7FBBCC08C
:10042000E92FE2D080F3BA176207730784079507B4
:1004300018F071F49EF5FAC00EF4E0950B2EBA2F69
:10044000A02D0B01B90190010C01CA01A0011124DA
:10045000FF27591B99F0593F50F4503E68F11A1686
:10046000F040A22F232F342F4427585FF3CF469517
:1004700037952795A795F0405395C9F77EF41F1639
:10048000BA0B620B730B840BBAF09150A1F0FF0F03
:10049000BB1F661F771F881FC2F70EC0BA0F621FEF
:1004A000731F841F48F4879577956795B795F795DF
:1004B0009E3F08F0B3CF9395880F08F09927EE0F71
:1004C00097958795089598D088F09F5790F0B92F09
:1004D0009927B751A0F0D1F0660F771F881F991F99
:1004E0001AF0BA95C9F712C0B13081F09FD0B1E0CF
:1004F00008959CC0672F782F8827B85F39F0B93FDF
:10050000CCF3869577956795B395D9F73EF490959A
:100510008095709561957F4F8F4F9F4F0895E89418
:1005200009C097FB3EF490958095709561957F4F3B
:100530008F4F9F4F9923A9F0F92F96E9BB279395E9
:10054000F695879577956795B795F111F8CFFAF4F9
:10055000BB0F11F460FF1BC06F5F7F4F8F4F9F4F2A
:1005600016C0882311F096E911C0772321F09EE888
:10057000872F762F05C0662371F096E8862F70E0EE
:1005800060E02AF09A95660F771F881FDAF7880FC8
:100590009695879597F9089597F99F6780E870E099
:1005A00060E008959FEF80EC089500240A941616E9
:1005B000170618060906089500240A941216130651
:1005C000140605060895092E0394000C11F48823DF
:1005D00052F0BB0F40F4BF2B11F460FF04C06F5FFB
:1005E0007F4F8F4F9F4F089557FD9058440F551FD1
:1005F00059F05F3F71F04795880F97FB991F61F0A5
:100600009F3F79F087950895121613061406551F1B
:10061000F2CF4695F1DF08C0161617061806991F87
:10062000F1CF86957105610508940895E894BB277C
:1006300066277727CB0197F9089503D008F48FEF49
:100640000895990F0008550FAA0BE0E8FEEF161663
:100650001706E807F907C0F012161306E407F507B6
:1006600098F0621B730B840B950B39F40A2661F02A
:10067000232B242B252B21F408950A2609F4A140CD
:0E068000A6958FEF811D811D0895F894FFCF80
:10068E00300000000000000000000000804000016B
:10069E000101020202020303030404040505050519
:1006AE0006060606070707070808080808080909C6
:1006BE0009090909090A0A0A0A0A0A0A0A0A0A0A91
:1006CE000A0A0A0A0A0A0A0A0A0A09090909090982
:1006DE00090808080808080707070706060606059A
:1006EE0005050504040403030302020202010101CD
:1006FE00000000FFFFFFFEFEFEFEFDFDFDFCFCFC0C
:10070E00FBFBFBFBFAFAFAFAF9F9F9F9F8F8F8F843
:10071E00F8F8F7F7F7F7F7F7F7F6F6F6F6F6F6F660
:10072E00F6F6F6F6F6F6F6F6F6F6F6F6F6F6F7F759
:10073E00F7F7F7F7F7F8F8F8F8F8F8F9F9F9F9FA2A
:10074E00FAFAFAFBFBFBFBFCFCFCFDFDFDFEFEFEDC
:10075E00FEFFFFFF000083878B9094989C9FA3A7BA
:10076E00ABAFB3B6B9BDC1C4C7CBCDD1D4D6DADD2C
:10077E00DFE2E4E7E9EBEDF0F1F2F5F6F7F9FAFB7B
:10078E00FCFCFEFEFFFFFFFFFFFFFFFEFEFCFCFB7F
:10079E00FAF9F7F6F5F2F1F0EDEBE9E7E4E2DFDD79
:1007AE00DAD6D4D1CDCBC7C4C1BDB9B6B3AFABA722
:1007BE00A39F9C9894908B8783807C78746F6B67D3
:1007CE0063605C5854504D4946423E3B3834322E9D
:1007DE002B292522201D1B181614120F0E0D0A0987
:1007EE0008060504030301010000000000000001DB
:1007FE0001030304050608090A0D0E0F121416183C
:10080E001B1D202225292B2E3234383B3E424649D1
:10081E004D5054585C6063676B6F74787C80504C9D
:10082E004541534520494E505554204E554D424555
:10083E005228303030307E393939392900455252FC
:10084E004F5220504C4541534520494E505554204F
:10085E004E554D424552004F4B004368616E6765E1
:10086E0020746F2000487A00504C4541534520506B
:0C087E0055534820414E59204B4559006D
:00000001FF
